{
  "contractName": "whatsapp3",
  "abi": [
    {
      "anonymous": false,
      "inputs": [
        {
          "indexed": false,
          "internalType": "address",
          "name": "user_address",
          "type": "address"
        },
        {
          "indexed": false,
          "internalType": "address",
          "name": "friend_address",
          "type": "address"
        },
        {
          "indexed": false,
          "internalType": "address",
          "name": "author",
          "type": "address"
        }
      ],
      "name": "friend_added",
      "type": "event"
    },
    {
      "anonymous": false,
      "inputs": [
        {
          "indexed": false,
          "internalType": "address",
          "name": "user_address",
          "type": "address"
        },
        {
          "indexed": false,
          "internalType": "address",
          "name": "friend_address",
          "type": "address"
        },
        {
          "indexed": false,
          "internalType": "address",
          "name": "author",
          "type": "address"
        }
      ],
      "name": "friend_removed",
      "type": "event"
    },
    {
      "anonymous": false,
      "inputs": [
        {
          "indexed": false,
          "internalType": "address",
          "name": "user_address",
          "type": "address"
        },
        {
          "indexed": false,
          "internalType": "address",
          "name": "friend_address",
          "type": "address"
        },
        {
          "indexed": false,
          "internalType": "address",
          "name": "author",
          "type": "address"
        }
      ],
      "name": "friend_request_accepted",
      "type": "event"
    },
    {
      "anonymous": false,
      "inputs": [
        {
          "indexed": false,
          "internalType": "address",
          "name": "user_address",
          "type": "address"
        },
        {
          "indexed": false,
          "internalType": "address",
          "name": "friend_address",
          "type": "address"
        },
        {
          "indexed": false,
          "internalType": "address",
          "name": "author",
          "type": "address"
        }
      ],
      "name": "friend_request_added",
      "type": "event"
    },
    {
      "anonymous": false,
      "inputs": [
        {
          "indexed": false,
          "internalType": "address",
          "name": "user_address",
          "type": "address"
        },
        {
          "indexed": false,
          "internalType": "address",
          "name": "friend_address",
          "type": "address"
        },
        {
          "indexed": false,
          "internalType": "address",
          "name": "author",
          "type": "address"
        }
      ],
      "name": "friend_request_rejected",
      "type": "event"
    },
    {
      "anonymous": false,
      "inputs": [
        {
          "indexed": false,
          "internalType": "address",
          "name": "user_address",
          "type": "address"
        },
        {
          "indexed": false,
          "internalType": "address",
          "name": "friend_address",
          "type": "address"
        },
        {
          "indexed": false,
          "internalType": "string",
          "name": "message",
          "type": "string"
        },
        {
          "indexed": false,
          "internalType": "string",
          "name": "date",
          "type": "string"
        },
        {
          "indexed": false,
          "internalType": "string",
          "name": "time",
          "type": "string"
        },
        {
          "indexed": false,
          "internalType": "bool",
          "name": "seen_status",
          "type": "bool"
        },
        {
          "indexed": false,
          "internalType": "address",
          "name": "author",
          "type": "address"
        }
      ],
      "name": "message_added",
      "type": "event"
    },
    {
      "anonymous": false,
      "inputs": [
        {
          "indexed": false,
          "internalType": "address",
          "name": "user_address",
          "type": "address"
        },
        {
          "indexed": false,
          "internalType": "string",
          "name": "story",
          "type": "string"
        },
        {
          "indexed": false,
          "internalType": "address",
          "name": "author",
          "type": "address"
        }
      ],
      "name": "story_added",
      "type": "event"
    },
    {
      "anonymous": false,
      "inputs": [
        {
          "indexed": false,
          "internalType": "address",
          "name": "user_address",
          "type": "address"
        },
        {
          "indexed": false,
          "internalType": "string",
          "name": "name",
          "type": "string"
        },
        {
          "indexed": false,
          "internalType": "string",
          "name": "profile_picture",
          "type": "string"
        },
        {
          "indexed": false,
          "internalType": "string",
          "name": "last_seen",
          "type": "string"
        },
        {
          "indexed": false,
          "internalType": "address",
          "name": "author",
          "type": "address"
        }
      ],
      "name": "user_added",
      "type": "event"
    },
    {
      "inputs": [
        {
          "internalType": "address",
          "name": "",
          "type": "address"
        }
      ],
      "name": "users",
      "outputs": [
        {
          "components": [
            {
              "internalType": "string",
              "name": "name",
              "type": "string"
            },
            {
              "internalType": "string",
              "name": "profile_picture",
              "type": "string"
            },
            {
              "internalType": "string",
              "name": "last_seen",
              "type": "string"
            }
          ],
          "internalType": "struct whatsapp3.profile",
          "name": "profile",
          "type": "tuple"
        }
      ],
      "stateMutability": "view",
      "type": "function",
      "constant": true
    },
    {
      "inputs": [
        {
          "internalType": "uint256",
          "name": "",
          "type": "uint256"
        }
      ],
      "name": "users_addresses",
      "outputs": [
        {
          "internalType": "address",
          "name": "",
          "type": "address"
        }
      ],
      "stateMutability": "view",
      "type": "function",
      "constant": true
    },
    {
      "inputs": [
        {
          "internalType": "address",
          "name": "user_address",
          "type": "address"
        },
        {
          "internalType": "string",
          "name": "name",
          "type": "string"
        },
        {
          "internalType": "string",
          "name": "profile_picture",
          "type": "string"
        },
        {
          "internalType": "string",
          "name": "last_seen",
          "type": "string"
        }
      ],
      "name": "add_user",
      "outputs": [],
      "stateMutability": "nonpayable",
      "type": "function"
    },
    {
      "inputs": [
        {
          "internalType": "address",
          "name": "user_address",
          "type": "address"
        },
        {
          "internalType": "address",
          "name": "friend_address",
          "type": "address"
        }
      ],
      "name": "add_friend",
      "outputs": [],
      "stateMutability": "nonpayable",
      "type": "function"
    },
    {
      "inputs": [
        {
          "internalType": "address",
          "name": "user_address",
          "type": "address"
        },
        {
          "internalType": "address",
          "name": "friend_address",
          "type": "address"
        }
      ],
      "name": "remove_friend",
      "outputs": [],
      "stateMutability": "nonpayable",
      "type": "function"
    },
    {
      "inputs": [
        {
          "internalType": "address",
          "name": "user_address",
          "type": "address"
        },
        {
          "internalType": "address",
          "name": "friend_address",
          "type": "address"
        }
      ],
      "name": "add_friend_request",
      "outputs": [],
      "stateMutability": "nonpayable",
      "type": "function"
    },
    {
      "inputs": [
        {
          "internalType": "address",
          "name": "user_address",
          "type": "address"
        },
        {
          "internalType": "address",
          "name": "friend_address",
          "type": "address"
        }
      ],
      "name": "accept_friend_request",
      "outputs": [],
      "stateMutability": "nonpayable",
      "type": "function"
    },
    {
      "inputs": [
        {
          "internalType": "address",
          "name": "user_address",
          "type": "address"
        },
        {
          "internalType": "address",
          "name": "friend_address",
          "type": "address"
        }
      ],
      "name": "reject_friend_request",
      "outputs": [],
      "stateMutability": "nonpayable",
      "type": "function"
    },
    {
      "inputs": [
        {
          "internalType": "address",
          "name": "user_address",
          "type": "address"
        },
        {
          "internalType": "string",
          "name": "story",
          "type": "string"
        }
      ],
      "name": "add_story",
      "outputs": [],
      "stateMutability": "nonpayable",
      "type": "function"
    },
    {
      "inputs": [
        {
          "internalType": "address",
          "name": "user_address",
          "type": "address"
        },
        {
          "internalType": "address",
          "name": "friend_address",
          "type": "address"
        },
        {
          "internalType": "string",
          "name": "message_",
          "type": "string"
        },
        {
          "internalType": "string",
          "name": "date",
          "type": "string"
        },
        {
          "internalType": "string",
          "name": "time",
          "type": "string"
        },
        {
          "internalType": "bool",
          "name": "seen_status",
          "type": "bool"
        }
      ],
      "name": "add_message",
      "outputs": [],
      "stateMutability": "nonpayable",
      "type": "function"
    },
    {
      "inputs": [
        {
          "internalType": "address",
          "name": "user_address",
          "type": "address"
        },
        {
          "internalType": "address",
          "name": "friend_address",
          "type": "address"
        }
      ],
      "name": "getmessages",
      "outputs": [
        {
          "components": [
            {
              "internalType": "string",
              "name": "message",
              "type": "string"
            },
            {
              "internalType": "string",
              "name": "date",
              "type": "string"
            },
            {
              "internalType": "string",
              "name": "time",
              "type": "string"
            },
            {
              "internalType": "bool",
              "name": "seen_status",
              "type": "bool"
            }
          ],
          "internalType": "struct whatsapp3.Message[]",
          "name": "",
          "type": "tuple[]"
        }
      ],
      "stateMutability": "view",
      "type": "function",
      "constant": true
    },
    {
      "inputs": [
        {
          "internalType": "address",
          "name": "user_address",
          "type": "address"
        }
      ],
      "name": "getfriends",
      "outputs": [
        {
          "internalType": "address[]",
          "name": "",
          "type": "address[]"
        }
      ],
      "stateMutability": "view",
      "type": "function",
      "constant": true
    },
    {
      "inputs": [
        {
          "internalType": "address",
          "name": "user_address",
          "type": "address"
        }
      ],
      "name": "getstories",
      "outputs": [
        {
          "internalType": "string[]",
          "name": "",
          "type": "string[]"
        }
      ],
      "stateMutability": "view",
      "type": "function",
      "constant": true
    },
    {
      "inputs": [
        {
          "internalType": "address",
          "name": "user_address",
          "type": "address"
        }
      ],
      "name": "getfriends_requests",
      "outputs": [
        {
          "internalType": "address[]",
          "name": "",
          "type": "address[]"
        }
      ],
      "stateMutability": "view",
      "type": "function",
      "constant": true
    },
    {
      "inputs": [
        {
          "internalType": "address",
          "name": "user_address",
          "type": "address"
        },
        {
          "internalType": "string",
          "name": "name",
          "type": "string"
        }
      ],
      "name": "search_user",
      "outputs": [
        {
          "internalType": "address[]",
          "name": "",
          "type": "address[]"
        }
      ],
      "stateMutability": "view",
      "type": "function",
      "constant": true
    },
    {
      "inputs": [
        {
          "internalType": "string",
          "name": "name",
          "type": "string"
        }
      ],
      "name": "search_new_friends",
      "outputs": [
        {
          "internalType": "address[]",
          "name": "",
          "type": "address[]"
        }
      ],
      "stateMutability": "view",
      "type": "function",
      "constant": true
    },
    {
      "inputs": [],
      "name": "getusers",
      "outputs": [
        {
          "internalType": "address[]",
          "name": "",
          "type": "address[]"
        }
      ],
      "stateMutability": "view",
      "type": "function",
      "constant": true
    }
  ],
  "bytecode": "0x608060405234801561001057600080fd5b506130de806100206000396000f3fe608060405234801561001057600080fd5b506004361061010b5760003560e01c8063640abde6116100a257806395ef98131161007157806395ef9813146102c6578063a7ea98c0146102f6578063a86d0d1114610326578063a87430ba14610342578063d309d483146103725761010b565b8063640abde61461022e578063649d13fa1461024a5780636b2d255b1461027a5780636e2289d9146102aa5761010b565b80633960cb95116100de5780633960cb95146101aa578063470a2473146101da5780635b1b7a99146101f65780635f2559f9146102125761010b565b80630807c1a01461011057806314edccc2146101405780632c2b37021461015e578063305246541461017a575b600080fd5b61012a60048036038101906101259190612219565b61038e565b6040516101379190612352565b60405180910390f35b61014861057f565b6040516101559190612352565b60405180910390f35b610178600480360381019061017391906123a0565b61060d565b005b610194600480360381019061018f919061245b565b6107ae565b6040516101a191906125d2565b60405180910390f35b6101c460048036038101906101bf919061245b565b6108c9565b6040516101d19190612352565b60405180910390f35b6101f460048036038101906101ef919061262c565b610999565b005b610210600480360381019061020b919061270d565b610b13565b005b61022c6004803603810190610227919061270d565b610bf5565b005b6102486004803603810190610243919061270d565b610cd7565b005b610264600480360381019061025f919061274d565b611168565b6040516102719190612352565b60405180910390f35b610294600480360381019061028f919061270d565b6113d8565b6040516102a191906128eb565b60405180910390f35b6102c460048036038101906102bf919061270d565b611688565b005b6102e060048036038101906102db9190612943565b6119d3565b6040516102ed919061297f565b60405180910390f35b610310600480360381019061030b919061245b565b611a12565b60405161031d9190612352565b60405180910390f35b610340600480360381019061033b919061274d565b611ae2565b005b61035c6004803603810190610357919061245b565b611b96565b60405161036991906129f8565b60405180910390f35b61038c6004803603810190610387919061270d565b611d74565b005b60606000808054905067ffffffffffffffff8111156103b0576103af6120ee565b5b6040519080825280602002602001820160405280156103de5781602001602082028036833780820191505090505b5090506000805b60008054905081101561057457846040516020016104039190612a56565b60405160208183030381529060405280519060200120600160008084815481106104305761042f612a6d565b5b9060005260206000200160009054906101000a900473ffffffffffffffffffffffffffffffffffffffff1673ffffffffffffffffffffffffffffffffffffffff1673ffffffffffffffffffffffffffffffffffffffff1681526020019081526020016000206004016000016040516020016104ab9190612b94565b604051602081830303815290604052805190602001200361056157600081815481106104da576104d9612a6d565b5b9060005260206000200160009054906101000a900473ffffffffffffffffffffffffffffffffffffffff1683838151811061051857610517612a6d565b5b602002602001019073ffffffffffffffffffffffffffffffffffffffff16908173ffffffffffffffffffffffffffffffffffffffff1681525050818061055d90612bda565b9250505b808061056c90612bda565b9150506103e5565b508192505050919050565b6060600080548060200260200160405190810160405280929190818152602001828054801561060357602002820191906000526020600020905b8160009054906101000a900473ffffffffffffffffffffffffffffffffffffffff1673ffffffffffffffffffffffffffffffffffffffff16815260200190600101908083116105b9575b5050505050905090565b82600160008673ffffffffffffffffffffffffffffffffffffffff1673ffffffffffffffffffffffffffffffffffffffff168152602001908152602001600020600401600001908161065f9190612db9565b5081600160008673ffffffffffffffffffffffffffffffffffffffff1673ffffffffffffffffffffffffffffffffffffffff16815260200190815260200160002060040160010190816106b29190612db9565b5080600160008673ffffffffffffffffffffffffffffffffffffffff1673ffffffffffffffffffffffffffffffffffffffff16815260200190815260200160002060040160020190816107059190612db9565b506000849080600181540180825580915050600190039060005260206000200160009091909190916101000a81548173ffffffffffffffffffffffffffffffffffffffff021916908373ffffffffffffffffffffffffffffffffffffffff1602179055507fb2d51962e7aef3f579170ec16d4a55b1e4ebdd5f588aebe13e745521f42d4a4c84848484336040516107a0959493929190612ed5565b60405180910390a150505050565b6060600160008373ffffffffffffffffffffffffffffffffffffffff1673ffffffffffffffffffffffffffffffffffffffff168152602001908152602001600020600101805480602002602001604051908101604052809291908181526020016000905b828210156108be57838290600052602060002001805461083190612acb565b80601f016020809104026020016040519081016040528092919081815260200182805461085d90612acb565b80156108aa5780601f1061087f576101008083540402835291602001916108aa565b820191906000526020600020905b81548152906001019060200180831161088d57829003601f168201915b505050505081526020019060010190610812565b505050509050919050565b6060600160008373ffffffffffffffffffffffffffffffffffffffff1673ffffffffffffffffffffffffffffffffffffffff16815260200190815260200160002060000180548060200260200160405190810160405280929190818152602001828054801561098d57602002820191906000526020600020905b8160009054906101000a900473ffffffffffffffffffffffffffffffffffffffff1673ffffffffffffffffffffffffffffffffffffffff1681526020019060010190808311610943575b50505050509050919050565b600160008773ffffffffffffffffffffffffffffffffffffffff1673ffffffffffffffffffffffffffffffffffffffff16815260200190815260200160002060030160008673ffffffffffffffffffffffffffffffffffffffff1673ffffffffffffffffffffffffffffffffffffffff168152602001908152602001600020604051806080016040528086815260200185815260200184815260200183151581525090806001815401808255809150506001900390600052602060002090600402016000909190919091506000820151816000019081610a799190612db9565b506020820151816001019081610a8f9190612db9565b506040820151816002019081610aa59190612db9565b5060608201518160030160006101000a81548160ff02191690831515021790555050507f3cfbeb27f99edccab3d5da188b06aab49c0bc0eff7c4da8688db983aa61db01786868686868633604051610b039796959493929190612f4c565b60405180910390a1505050505050565b600160008373ffffffffffffffffffffffffffffffffffffffff1673ffffffffffffffffffffffffffffffffffffffff168152602001908152602001600020600201819080600181540180825580915050600190039060005260206000200160009091909190916101000a81548173ffffffffffffffffffffffffffffffffffffffff021916908373ffffffffffffffffffffffffffffffffffffffff1602179055507f7bdecdd70013f877cd3525072dd5df5b1aa8df7bfea66c220cf7ad60cd8f0029828233604051610be993929190612fd0565b60405180910390a15050565b600160008373ffffffffffffffffffffffffffffffffffffffff1673ffffffffffffffffffffffffffffffffffffffff168152602001908152602001600020600001819080600181540180825580915050600190039060005260206000200160009091909190916101000a81548173ffffffffffffffffffffffffffffffffffffffff021916908373ffffffffffffffffffffffffffffffffffffffff1602179055507f251745d166f79b17ce178271ba6793ac4d9e568d1b4ec5de538738064c8891bc828233604051610ccb93929190612fd0565b60405180910390a15050565b60005b600160008473ffffffffffffffffffffffffffffffffffffffff1673ffffffffffffffffffffffffffffffffffffffff16815260200190815260200160002060020180549050811015610fe2578173ffffffffffffffffffffffffffffffffffffffff16600160008573ffffffffffffffffffffffffffffffffffffffff1673ffffffffffffffffffffffffffffffffffffffff1681526020019081526020016000206002018281548110610d9257610d91612a6d565b5b9060005260206000200160009054906101000a900473ffffffffffffffffffffffffffffffffffffffff1673ffffffffffffffffffffffffffffffffffffffff1603610fcf57600160008473ffffffffffffffffffffffffffffffffffffffff1673ffffffffffffffffffffffffffffffffffffffff16815260200190815260200160002060020160018060008673ffffffffffffffffffffffffffffffffffffffff1673ffffffffffffffffffffffffffffffffffffffff16815260200190815260200160002060020180549050610e6b9190613007565b81548110610e7c57610e7b612a6d565b5b9060005260206000200160009054906101000a900473ffffffffffffffffffffffffffffffffffffffff16600160008573ffffffffffffffffffffffffffffffffffffffff1673ffffffffffffffffffffffffffffffffffffffff1681526020019081526020016000206002018281548110610efb57610efa612a6d565b5b9060005260206000200160006101000a81548173ffffffffffffffffffffffffffffffffffffffff021916908373ffffffffffffffffffffffffffffffffffffffff160217905550600160008473ffffffffffffffffffffffffffffffffffffffff1673ffffffffffffffffffffffffffffffffffffffff168152602001908152602001600020600201805480610f9557610f9461303b565b5b6001900381819060005260206000200160006101000a81549073ffffffffffffffffffffffffffffffffffffffff02191690559055610fe2565b8080610fda90612bda565b915050610cda565b50600160008373ffffffffffffffffffffffffffffffffffffffff1673ffffffffffffffffffffffffffffffffffffffff168152602001908152602001600020600001819080600181540180825580915050600190039060005260206000200160009091909190916101000a81548173ffffffffffffffffffffffffffffffffffffffff021916908373ffffffffffffffffffffffffffffffffffffffff160217905550600160008273ffffffffffffffffffffffffffffffffffffffff1673ffffffffffffffffffffffffffffffffffffffff168152602001908152602001600020600001829080600181540180825580915050600190039060005260206000200160009091909190916101000a81548173ffffffffffffffffffffffffffffffffffffffff021916908373ffffffffffffffffffffffffffffffffffffffff1602179055507f31013f2bd9af2b972cf3bc92696dd88206da07cd7cf6b73390872185e8e02b0882823360405161115c93929190612fd0565b60405180910390a15050565b60606000600160008573ffffffffffffffffffffffffffffffffffffffff1673ffffffffffffffffffffffffffffffffffffffff16815260200190815260200160002060000180548060200260200160405190810160405280929190818152602001828054801561122e57602002820191906000526020600020905b8160009054906101000a900473ffffffffffffffffffffffffffffffffffffffff1673ffffffffffffffffffffffffffffffffffffffff16815260200190600101908083116111e4575b505050505090506000815167ffffffffffffffff811115611252576112516120ee565b5b6040519080825280602002602001820160405280156112805781602001602082028036833780820191505090505b5090506000805b83518110156113cb57856040516020016112a19190612a56565b60405160208183030381529060405280519060200120600160008684815181106112ce576112cd612a6d565b5b602002602001015173ffffffffffffffffffffffffffffffffffffffff1673ffffffffffffffffffffffffffffffffffffffff1681526020019081526020016000206004016000016040516020016113269190612b94565b60405160208183030381529060405280519060200120036113b85783818151811061135457611353612a6d565b5b602002602001015183838151811061136f5761136e612a6d565b5b602002602001019073ffffffffffffffffffffffffffffffffffffffff16908173ffffffffffffffffffffffffffffffffffffffff168152505081806113b490612bda565b9250505b80806113c390612bda565b915050611287565b5081935050505092915050565b6060600160008473ffffffffffffffffffffffffffffffffffffffff1673ffffffffffffffffffffffffffffffffffffffff16815260200190815260200160002060030160008373ffffffffffffffffffffffffffffffffffffffff1673ffffffffffffffffffffffffffffffffffffffff168152602001908152602001600020805480602002602001604051908101604052809291908181526020016000905b8282101561167c57838290600052602060002090600402016040518060800160405290816000820180546114ac90612acb565b80601f01602080910402602001604051908101604052809291908181526020018280546114d890612acb565b80156115255780601f106114fa57610100808354040283529160200191611525565b820191906000526020600020905b81548152906001019060200180831161150857829003601f168201915b5050505050815260200160018201805461153e90612acb565b80601f016020809104026020016040519081016040528092919081815260200182805461156a90612acb565b80156115b75780601f1061158c576101008083540402835291602001916115b7565b820191906000526020600020905b81548152906001019060200180831161159a57829003601f168201915b505050505081526020016002820180546115d090612acb565b80601f01602080910402602001604051908101604052809291908181526020018280546115fc90612acb565b80156116495780601f1061161e57610100808354040283529160200191611649565b820191906000526020600020905b81548152906001019060200180831161162c57829003601f168201915b505050505081526020016003820160009054906101000a900460ff16151515158152505081526020019060010190611479565b50505050905092915050565b60005b600160008473ffffffffffffffffffffffffffffffffffffffff1673ffffffffffffffffffffffffffffffffffffffff16815260200190815260200160002060020180549050811015611993578173ffffffffffffffffffffffffffffffffffffffff16600160008573ffffffffffffffffffffffffffffffffffffffff1673ffffffffffffffffffffffffffffffffffffffff168152602001908152602001600020600201828154811061174357611742612a6d565b5b9060005260206000200160009054906101000a900473ffffffffffffffffffffffffffffffffffffffff1673ffffffffffffffffffffffffffffffffffffffff160361198057600160008473ffffffffffffffffffffffffffffffffffffffff1673ffffffffffffffffffffffffffffffffffffffff16815260200190815260200160002060020160018060008673ffffffffffffffffffffffffffffffffffffffff1673ffffffffffffffffffffffffffffffffffffffff1681526020019081526020016000206002018054905061181c9190613007565b8154811061182d5761182c612a6d565b5b9060005260206000200160009054906101000a900473ffffffffffffffffffffffffffffffffffffffff16600160008573ffffffffffffffffffffffffffffffffffffffff1673ffffffffffffffffffffffffffffffffffffffff16815260200190815260200160002060020182815481106118ac576118ab612a6d565b5b9060005260206000200160006101000a81548173ffffffffffffffffffffffffffffffffffffffff021916908373ffffffffffffffffffffffffffffffffffffffff160217905550600160008473ffffffffffffffffffffffffffffffffffffffff1673ffffffffffffffffffffffffffffffffffffffff1681526020019081526020016000206002018054806119465761194561303b565b5b6001900381819060005260206000200160006101000a81549073ffffffffffffffffffffffffffffffffffffffff02191690559055611993565b808061198b90612bda565b91505061168b565b507fb8f77d4f99094a6eae84864c078ec2d0c983848aafae629b2d7ef239aa0ce78f8282336040516119c793929190612fd0565b60405180910390a15050565b600081815481106119e357600080fd5b906000526020600020016000915054906101000a900473ffffffffffffffffffffffffffffffffffffffff1681565b6060600160008373ffffffffffffffffffffffffffffffffffffffff1673ffffffffffffffffffffffffffffffffffffffff168152602001908152602001600020600201805480602002602001604051908101604052809291908181526020018280548015611ad657602002820191906000526020600020905b8160009054906101000a900473ffffffffffffffffffffffffffffffffffffffff1673ffffffffffffffffffffffffffffffffffffffff1681526020019060010190808311611a8c575b50505050509050919050565b600160008373ffffffffffffffffffffffffffffffffffffffff1673ffffffffffffffffffffffffffffffffffffffff16815260200190815260200160002060010181908060018154018082558091505060019003906000526020600020016000909190919091509081611b569190612db9565b507f945c1dbc0c358e04164cdbe25f7dcb789b055a8f5a9fe0ee70788194a28a8b25828233604051611b8a9392919061306a565b60405180910390a15050565b600160205280600052604060002060009150905080600401604051806060016040529081600082018054611bc990612acb565b80601f0160208091040260200160405190810160405280929190818152602001828054611bf590612acb565b8015611c425780601f10611c1757610100808354040283529160200191611c42565b820191906000526020600020905b815481529060010190602001808311611c2557829003601f168201915b50505050508152602001600182018054611c5b90612acb565b80601f0160208091040260200160405190810160405280929190818152602001828054611c8790612acb565b8015611cd45780601f10611ca957610100808354040283529160200191611cd4565b820191906000526020600020905b815481529060010190602001808311611cb757829003601f168201915b50505050508152602001600282018054611ced90612acb565b80601f0160208091040260200160405190810160405280929190818152602001828054611d1990612acb565b8015611d665780601f10611d3b57610100808354040283529160200191611d66565b820191906000526020600020905b815481529060010190602001808311611d4957829003601f168201915b505050505081525050905081565b60005b600160008473ffffffffffffffffffffffffffffffffffffffff1673ffffffffffffffffffffffffffffffffffffffff1681526020019081526020016000206000018054905081101561207f578173ffffffffffffffffffffffffffffffffffffffff16600160008573ffffffffffffffffffffffffffffffffffffffff1673ffffffffffffffffffffffffffffffffffffffff1681526020019081526020016000206000018281548110611e2f57611e2e612a6d565b5b9060005260206000200160009054906101000a900473ffffffffffffffffffffffffffffffffffffffff1673ffffffffffffffffffffffffffffffffffffffff160361206c57600160008473ffffffffffffffffffffffffffffffffffffffff1673ffffffffffffffffffffffffffffffffffffffff16815260200190815260200160002060000160018060008673ffffffffffffffffffffffffffffffffffffffff1673ffffffffffffffffffffffffffffffffffffffff16815260200190815260200160002060000180549050611f089190613007565b81548110611f1957611f18612a6d565b5b9060005260206000200160009054906101000a900473ffffffffffffffffffffffffffffffffffffffff16600160008573ffffffffffffffffffffffffffffffffffffffff1673ffffffffffffffffffffffffffffffffffffffff1681526020019081526020016000206000018281548110611f9857611f97612a6d565b5b9060005260206000200160006101000a81548173ffffffffffffffffffffffffffffffffffffffff021916908373ffffffffffffffffffffffffffffffffffffffff160217905550600160008473ffffffffffffffffffffffffffffffffffffffff1673ffffffffffffffffffffffffffffffffffffffff1681526020019081526020016000206000018054806120325761203161303b565b5b6001900381819060005260206000200160006101000a81549073ffffffffffffffffffffffffffffffffffffffff0219169055905561207f565b808061207790612bda565b915050611d77565b507f4960e671fa055f9309be3cc830398c12fbadf2d058ed06800c75f508345e568a8282336040516120b393929190612fd0565b60405180910390a15050565b6000604051905090565b600080fd5b600080fd5b600080fd5b600080fd5b6000601f19601f8301169050919050565b7f4e487b7100000000000000000000000000000000000000000000000000000000600052604160045260246000fd5b612126826120dd565b810181811067ffffffffffffffff82111715612145576121446120ee565b5b80604052505050565b60006121586120bf565b9050612164828261211d565b919050565b600067ffffffffffffffff821115612184576121836120ee565b5b61218d826120dd565b9050602081019050919050565b82818337600083830152505050565b60006121bc6121b784612169565b61214e565b9050828152602081018484840111156121d8576121d76120d8565b5b6121e384828561219a565b509392505050565b600082601f830112612200576121ff6120d3565b5b81356122108482602086016121a9565b91505092915050565b60006020828403121561222f5761222e6120c9565b5b600082013567ffffffffffffffff81111561224d5761224c6120ce565b5b612259848285016121eb565b91505092915050565b600081519050919050565b600082825260208201905092915050565b6000819050602082019050919050565b600073ffffffffffffffffffffffffffffffffffffffff82169050919050565b60006122b98261228e565b9050919050565b6122c9816122ae565b82525050565b60006122db83836122c0565b60208301905092915050565b6000602082019050919050565b60006122ff82612262565b612309818561226d565b93506123148361227e565b8060005b8381101561234557815161232c88826122cf565b9750612337836122e7565b925050600181019050612318565b5085935050505092915050565b6000602082019050818103600083015261236c81846122f4565b905092915050565b61237d816122ae565b811461238857600080fd5b50565b60008135905061239a81612374565b92915050565b600080600080608085870312156123ba576123b96120c9565b5b60006123c88782880161238b565b945050602085013567ffffffffffffffff8111156123e9576123e86120ce565b5b6123f5878288016121eb565b935050604085013567ffffffffffffffff811115612416576124156120ce565b5b612422878288016121eb565b925050606085013567ffffffffffffffff811115612443576124426120ce565b5b61244f878288016121eb565b91505092959194509250565b600060208284031215612471576124706120c9565b5b600061247f8482850161238b565b91505092915050565b600081519050919050565b600082825260208201905092915050565b6000819050602082019050919050565b600081519050919050565b600082825260208201905092915050565b60005b838110156124ee5780820151818401526020810190506124d3565b838111156124fd576000848401525b50505050565b600061250e826124b4565b61251881856124bf565b93506125288185602086016124d0565b612531816120dd565b840191505092915050565b60006125488383612503565b905092915050565b6000602082019050919050565b600061256882612488565b6125728185612493565b935083602082028501612584856124a4565b8060005b858110156125c057848403895281516125a1858261253c565b94506125ac83612550565b925060208a01995050600181019050612588565b50829750879550505050505092915050565b600060208201905081810360008301526125ec818461255d565b905092915050565b60008115159050919050565b612609816125f4565b811461261457600080fd5b50565b60008135905061262681612600565b92915050565b60008060008060008060c08789031215612649576126486120c9565b5b600061265789828a0161238b565b965050602061266889828a0161238b565b955050604087013567ffffffffffffffff811115612689576126886120ce565b5b61269589828a016121eb565b945050606087013567ffffffffffffffff8111156126b6576126b56120ce565b5b6126c289828a016121eb565b935050608087013567ffffffffffffffff8111156126e3576126e26120ce565b5b6126ef89828a016121eb565b92505060a061270089828a01612617565b9150509295509295509295565b60008060408385031215612724576127236120c9565b5b60006127328582860161238b565b92505060206127438582860161238b565b9150509250929050565b60008060408385031215612764576127636120c9565b5b60006127728582860161238b565b925050602083013567ffffffffffffffff811115612793576127926120ce565b5b61279f858286016121eb565b9150509250929050565b600081519050919050565b600082825260208201905092915050565b6000819050602082019050919050565b6127de816125f4565b82525050565b600060808301600083015184820360008601526128018282612503565b9150506020830151848203602086015261281b8282612503565b915050604083015184820360408601526128358282612503565b915050606083015161284a60608601826127d5565b508091505092915050565b600061286183836127e4565b905092915050565b6000602082019050919050565b6000612881826127a9565b61288b81856127b4565b93508360208202850161289d856127c5565b8060005b858110156128d957848403895281516128ba8582612855565b94506128c583612869565b925060208a019950506001810190506128a1565b50829750879550505050505092915050565b600060208201905081810360008301526129058184612876565b905092915050565b6000819050919050565b6129208161290d565b811461292b57600080fd5b50565b60008135905061293d81612917565b92915050565b600060208284031215612959576129586120c9565b5b60006129678482850161292e565b91505092915050565b612979816122ae565b82525050565b60006020820190506129946000830184612970565b92915050565b600060608301600083015184820360008601526129b78282612503565b915050602083015184820360208601526129d18282612503565b915050604083015184820360408601526129eb8282612503565b9150508091505092915050565b60006020820190508181036000830152612a12818461299a565b905092915050565b600081905092915050565b6000612a30826124b4565b612a3a8185612a1a565b9350612a4a8185602086016124d0565b80840191505092915050565b6000612a628284612a25565b915081905092915050565b7f4e487b7100000000000000000000000000000000000000000000000000000000600052603260045260246000fd5b7f4e487b7100000000000000000000000000000000000000000000000000000000600052602260045260246000fd5b60006002820490506001821680612ae357607f821691505b602082108103612af657612af5612a9c565b5b50919050565b60008190508160005260206000209050919050565b60008154612b1e81612acb565b612b288186612a1a565b94506001821660008114612b435760018114612b5857612b8b565b60ff1983168652811515820286019350612b8b565b612b6185612afc565b60005b83811015612b8357815481890152600182019150602081019050612b64565b838801955050505b50505092915050565b6000612ba08284612b11565b915081905092915050565b7f4e487b7100000000000000000000000000000000000000000000000000000000600052601160045260246000fd5b6000612be58261290d565b91507fffffffffffffffffffffffffffffffffffffffffffffffffffffffffffffffff8203612c1757612c16612bab565b5b600182019050919050565b60006020601f8301049050919050565b600082821b905092915050565b600060088302612c6f7fffffffffffffffffffffffffffffffffffffffffffffffffffffffffffffffff82612c32565b612c798683612c32565b95508019841693508086168417925050509392505050565b6000819050919050565b6000612cb6612cb1612cac8461290d565b612c91565b61290d565b9050919050565b6000819050919050565b612cd083612c9b565b612ce4612cdc82612cbd565b848454612c3f565b825550505050565b600090565b612cf9612cec565b612d04818484612cc7565b505050565b5b81811015612d2857612d1d600082612cf1565b600181019050612d0a565b5050565b601f821115612d6d57612d3e81612afc565b612d4784612c22565b81016020851015612d56578190505b612d6a612d6285612c22565b830182612d09565b50505b505050565b600082821c905092915050565b6000612d9060001984600802612d72565b1980831691505092915050565b6000612da98383612d7f565b9150826002028217905092915050565b612dc2826124b4565b67ffffffffffffffff811115612ddb57612dda6120ee565b5b612de58254612acb565b612df0828285612d2c565b600060209050601f831160018114612e235760008415612e11578287015190505b612e1b8582612d9d565b865550612e83565b601f198416612e3186612afc565b60005b82811015612e5957848901518255600182019150602085019450602081019050612e34565b86831015612e765784890151612e72601f891682612d7f565b8355505b6001600288020188555050505b505050505050565b600082825260208201905092915050565b6000612ea7826124b4565b612eb18185612e8b565b9350612ec18185602086016124d0565b612eca816120dd565b840191505092915050565b600060a082019050612eea6000830188612970565b8181036020830152612efc8187612e9c565b90508181036040830152612f108186612e9c565b90508181036060830152612f248185612e9c565b9050612f336080830184612970565b9695505050505050565b612f46816125f4565b82525050565b600060e082019050612f61600083018a612970565b612f6e6020830189612970565b8181036040830152612f808188612e9c565b90508181036060830152612f948187612e9c565b90508181036080830152612fa88186612e9c565b9050612fb760a0830185612f3d565b612fc460c0830184612970565b98975050505050505050565b6000606082019050612fe56000830186612970565b612ff26020830185612970565b612fff6040830184612970565b949350505050565b60006130128261290d565b915061301d8361290d565b9250828210156130305761302f612bab565b5b828203905092915050565b7f4e487b7100000000000000000000000000000000000000000000000000000000600052603160045260246000fd5b600060608201905061307f6000830186612970565b81810360208301526130918185612e9c565b90506130a06040830184612970565b94935050505056fea2646970667358221220e5d61a660154e05758c0500c78aa02fcf7960f1f17784018f8609ee787d8708b64736f6c634300080f0033",
  "immutableReferences": {},
  "source": "pragma solidity ^0.8.15;\r\n// functionalities\r\n// 1. user can send message to another user\r\n// 2. user can find other users using search option\r\n// 3. user can add his/her stories\r\n// 4. user can see other users stories\r\n// 5. user can see other users profile\r\n\r\n// user mapping information\r\n// 1. array of friends\r\n// 2. array of stories\r\n// 3. mapping of messages having key as other user address and value having array of structure having message, date, time, seen_status\r\n// 4. profile information like name, profile picture, last seen, etc\r\n\r\n\r\ncontract whatsapp3\r\n{\r\n    address[] public users_addresses;\r\n    struct Message\r\n    {\r\n        string message;\r\n        string date;\r\n        string time;\r\n        bool seen_status;\r\n    }\r\n    \r\n    struct profile\r\n    {\r\n        string name;\r\n        string profile_picture;\r\n        string last_seen;\r\n    }\r\n    \r\n    struct user\r\n    {\r\n        address[] friends;\r\n        string[] stories;\r\n        address[] friends_requests;\r\n        mapping(address => Message[]) messages;\r\n        profile profile;\r\n    }\r\n    \r\n    mapping(address => user) public users;\r\n\r\n    event user_added(address user_address, string name, string profile_picture, string last_seen,address author);\r\n    function add_user(address user_address, string memory name, string memory profile_picture, string memory last_seen) public\r\n    {\r\n        users[user_address].profile.name = name;\r\n        users[user_address].profile.profile_picture = profile_picture;\r\n        users[user_address].profile.last_seen = last_seen;\r\n        users_addresses.push(user_address);\r\n        emit user_added(user_address, name, profile_picture, last_seen,msg.sender);\r\n    }\r\n    event friend_added(address user_address, address friend_address, address author);\r\n    function add_friend(address user_address, address friend_address) public\r\n    {\r\n        users[user_address].friends.push(friend_address);\r\n        emit friend_added(user_address, friend_address, msg.sender);\r\n    }\r\n     event friend_removed(address user_address, address friend_address, address author);\r\n    function remove_friend(address user_address, address friend_address) public\r\n    {\r\n        for(uint i=0; i<users[user_address].friends.length; i++)\r\n        {\r\n            if(users[user_address].friends[i] == friend_address)\r\n            {\r\n                users[user_address].friends[i] = users[user_address].friends[users[user_address].friends.length-1];\r\n                users[user_address].friends.pop();\r\n                break;\r\n            }\r\n        }\r\n        emit friend_removed(user_address, friend_address, msg.sender);\r\n    }\r\n    event friend_request_added(address user_address, address friend_address, address author);\r\n    function add_friend_request(address user_address, address friend_address) public\r\n    {\r\n        users[user_address].friends_requests.push(friend_address);\r\n        emit friend_request_added(user_address, friend_address, msg.sender);\r\n    }\r\n    event friend_request_accepted(address user_address, address friend_address, address author);\r\n    function accept_friend_request(address user_address, address friend_address) public\r\n    {\r\n        for(uint i=0; i<users[user_address].friends_requests.length; i++)\r\n        {\r\n            if(users[user_address].friends_requests[i] == friend_address)\r\n            {\r\n                users[user_address].friends_requests[i] = users[user_address].friends_requests[users[user_address].friends_requests.length-1];\r\n                users[user_address].friends_requests.pop();\r\n                break;\r\n            }\r\n        }\r\n        users[user_address].friends.push(friend_address);\r\n        users[friend_address].friends.push(user_address);\r\n        emit friend_request_accepted(user_address, friend_address, msg.sender);\r\n    }\r\n    event friend_request_rejected(address user_address, address friend_address, address author);\r\n    function reject_friend_request(address user_address, address friend_address) public\r\n    {\r\n        for(uint i=0; i<users[user_address].friends_requests.length; i++)\r\n        {\r\n            if(users[user_address].friends_requests[i] == friend_address)\r\n            {\r\n                users[user_address].friends_requests[i] = users[user_address].friends_requests[users[user_address].friends_requests.length-1];\r\n                users[user_address].friends_requests.pop();\r\n                break;\r\n            }\r\n        }\r\n        emit friend_request_rejected(user_address, friend_address, msg.sender);\r\n    }\r\n   \r\n    event story_added(address user_address, string story, address author);\r\n    function add_story(address user_address, string memory story) public\r\n    {\r\n        users[user_address].stories.push(story);\r\n        emit story_added(user_address, story, msg.sender);\r\n    }\r\n    event message_added(address user_address, address friend_address, string message, string date, string time, bool seen_status, address author);\r\n    function add_message(address user_address, address friend_address, string memory message_, string memory date, string memory time, bool seen_status) public\r\n    {\r\n        users[user_address].messages[friend_address].push(Message(message_, date, time, seen_status));\r\n        emit message_added(user_address, friend_address, message_, date, time, seen_status, msg.sender);\r\n    }\r\n    function getmessages(address user_address, address friend_address) public view returns(Message[] memory)\r\n    {\r\n        return users[user_address].messages[friend_address];\r\n    }\r\n    function getfriends(address user_address) public view returns(address[] memory)\r\n    {\r\n        return users[user_address].friends;\r\n    }\r\n    function getstories(address user_address) public view returns(string[] memory)\r\n    {\r\n        return users[user_address].stories;\r\n    }\r\n    function getfriends_requests(address user_address) public view returns(address[] memory)\r\n    {\r\n        return users[user_address].friends_requests;\r\n    }\r\n    \r\n    function search_user(address user_address, string memory name) public view returns(address[] memory)\r\n    {\r\n        address[] memory friends = users[user_address].friends;\r\n        address[] memory result = new address[](friends.length);\r\n        uint count = 0;\r\n        for(uint i=0; i<friends.length; i++)\r\n        {\r\n            if(keccak256(abi.encodePacked(users[friends[i]].profile.name)) == keccak256(abi.encodePacked(name)))\r\n            {\r\n                result[count] = friends[i];\r\n                count++;\r\n            }\r\n        }\r\n        return result;\r\n    }\r\n\r\n    //write a function to search for new friends using name in users addresses array\r\n    function search_new_friends(string memory name) public view returns(address[] memory)\r\n    {\r\n        address[] memory result = new address[](users_addresses.length);\r\n        uint count = 0;\r\n        for(uint i=0; i<users_addresses.length; i++)\r\n        {\r\n            if(keccak256(abi.encodePacked(users[users_addresses[i]].profile.name)) == keccak256(abi.encodePacked(name)))\r\n            {\r\n                result[count] = users_addresses[i];\r\n                count++;\r\n            }\r\n        }\r\n        return result;\r\n    }\r\n    function getusers() public view returns(address[] memory)\r\n    {\r\n        return users_addresses;\r\n    }\r\n\r\n\r\n    \r\n\r\n   \r\n}",
  "sourcePath": "C:\\Users\\user\\Desktop\\projects\\whatsapp 3.0\\src\\contracts\\whatsapp3.sol",
  "compiler": {
    "name": "solc",
    "version": "0.8.15+commit.e14f2714.Emscripten.clang"
  },
  "schemaVersion": "3.4.11",
  "updatedAt": "2023-01-28T14:12:38.138Z",
  "networkType": "ethereum",
  "devdoc": {
    "kind": "dev",
    "methods": {},
    "version": 1
  },
  "userdoc": {
    "kind": "user",
    "methods": {},
    "version": 1
  }
}