{
  "contractName": "whatsapp3",
  "abi": [
    {
      "anonymous": false,
      "inputs": [
        {
          "indexed": false,
          "internalType": "address",
          "name": "user_address",
          "type": "address"
        },
        {
          "indexed": false,
          "internalType": "string",
          "name": "name",
          "type": "string"
        },
        {
          "indexed": false,
          "internalType": "string",
          "name": "profile_picture",
          "type": "string"
        },
        {
          "indexed": false,
          "internalType": "string",
          "name": "last_seen",
          "type": "string"
        },
        {
          "indexed": false,
          "internalType": "address",
          "name": "author",
          "type": "address"
        }
      ],
      "name": "user_added",
      "type": "event"
    },
    {
      "inputs": [
        {
          "internalType": "address",
          "name": "",
          "type": "address"
        }
      ],
      "name": "users",
      "outputs": [
        {
          "components": [
            {
              "internalType": "string",
              "name": "name",
              "type": "string"
            },
            {
              "internalType": "string",
              "name": "profile_picture",
              "type": "string"
            },
            {
              "internalType": "string",
              "name": "last_seen",
              "type": "string"
            }
          ],
          "internalType": "struct whatsapp3.profile",
          "name": "profile",
          "type": "tuple"
        }
      ],
      "stateMutability": "view",
      "type": "function",
      "constant": true
    },
    {
      "inputs": [
        {
          "internalType": "uint256",
          "name": "",
          "type": "uint256"
        }
      ],
      "name": "users_addresses",
      "outputs": [
        {
          "internalType": "address",
          "name": "",
          "type": "address"
        }
      ],
      "stateMutability": "view",
      "type": "function",
      "constant": true
    },
    {
      "inputs": [
        {
          "internalType": "address",
          "name": "user_address",
          "type": "address"
        },
        {
          "internalType": "string",
          "name": "name",
          "type": "string"
        },
        {
          "internalType": "string",
          "name": "profile_picture",
          "type": "string"
        },
        {
          "internalType": "string",
          "name": "last_seen",
          "type": "string"
        }
      ],
      "name": "add_user",
      "outputs": [],
      "stateMutability": "nonpayable",
      "type": "function"
    },
    {
      "inputs": [
        {
          "internalType": "address",
          "name": "user_address",
          "type": "address"
        },
        {
          "internalType": "address",
          "name": "friend_address",
          "type": "address"
        }
      ],
      "name": "add_friend",
      "outputs": [],
      "stateMutability": "nonpayable",
      "type": "function"
    },
    {
      "inputs": [
        {
          "internalType": "address",
          "name": "user_address",
          "type": "address"
        },
        {
          "internalType": "address",
          "name": "friend_address",
          "type": "address"
        }
      ],
      "name": "remove_friend",
      "outputs": [],
      "stateMutability": "nonpayable",
      "type": "function"
    },
    {
      "inputs": [
        {
          "internalType": "address",
          "name": "user_address",
          "type": "address"
        },
        {
          "internalType": "string",
          "name": "story",
          "type": "string"
        }
      ],
      "name": "add_story",
      "outputs": [],
      "stateMutability": "nonpayable",
      "type": "function"
    },
    {
      "inputs": [
        {
          "internalType": "address",
          "name": "user_address",
          "type": "address"
        },
        {
          "internalType": "address",
          "name": "friend_address",
          "type": "address"
        },
        {
          "internalType": "string",
          "name": "message_",
          "type": "string"
        },
        {
          "internalType": "string",
          "name": "date",
          "type": "string"
        },
        {
          "internalType": "string",
          "name": "time",
          "type": "string"
        },
        {
          "internalType": "bool",
          "name": "seen_status",
          "type": "bool"
        }
      ],
      "name": "add_message",
      "outputs": [],
      "stateMutability": "nonpayable",
      "type": "function"
    },
    {
      "inputs": [
        {
          "internalType": "address",
          "name": "user_address",
          "type": "address"
        },
        {
          "internalType": "address",
          "name": "friend_address",
          "type": "address"
        }
      ],
      "name": "getmessages",
      "outputs": [
        {
          "components": [
            {
              "internalType": "string",
              "name": "message",
              "type": "string"
            },
            {
              "internalType": "string",
              "name": "date",
              "type": "string"
            },
            {
              "internalType": "string",
              "name": "time",
              "type": "string"
            },
            {
              "internalType": "bool",
              "name": "seen_status",
              "type": "bool"
            }
          ],
          "internalType": "struct whatsapp3.Message[]",
          "name": "",
          "type": "tuple[]"
        }
      ],
      "stateMutability": "view",
      "type": "function",
      "constant": true
    },
    {
      "inputs": [
        {
          "internalType": "address",
          "name": "user_address",
          "type": "address"
        }
      ],
      "name": "getfriends",
      "outputs": [
        {
          "internalType": "address[]",
          "name": "",
          "type": "address[]"
        }
      ],
      "stateMutability": "view",
      "type": "function",
      "constant": true
    },
    {
      "inputs": [
        {
          "internalType": "address",
          "name": "user_address",
          "type": "address"
        }
      ],
      "name": "getstories",
      "outputs": [
        {
          "internalType": "string[]",
          "name": "",
          "type": "string[]"
        }
      ],
      "stateMutability": "view",
      "type": "function",
      "constant": true
    },
    {
      "inputs": [
        {
          "internalType": "address",
          "name": "user_address",
          "type": "address"
        },
        {
          "internalType": "string",
          "name": "name",
          "type": "string"
        }
      ],
      "name": "search_user",
      "outputs": [
        {
          "internalType": "address[]",
          "name": "",
          "type": "address[]"
        }
      ],
      "stateMutability": "view",
      "type": "function",
      "constant": true
    },
    {
      "inputs": [
        {
          "internalType": "string",
          "name": "name",
          "type": "string"
        }
      ],
      "name": "search_new_friends",
      "outputs": [
        {
          "internalType": "address[]",
          "name": "",
          "type": "address[]"
        }
      ],
      "stateMutability": "view",
      "type": "function",
      "constant": true
    },
    {
      "inputs": [],
      "name": "getusers",
      "outputs": [
        {
          "internalType": "address[]",
          "name": "",
          "type": "address[]"
        }
      ],
      "stateMutability": "view",
      "type": "function",
      "constant": true
    }
  ],
  "bytecode": "0x608060405234801561001057600080fd5b50612494806100206000396000f3fe608060405234801561001057600080fd5b50600436106100cf5760003560e01c80635f2559f91161008c57806395ef98131161006657806395ef981314610236578063a86d0d1114610266578063a87430ba14610282578063d309d483146102b2576100cf565b80635f2559f9146101ba578063649d13fa146101d65780636b2d255b14610206576100cf565b80630807c1a0146100d457806314edccc2146101045780632c2b370214610122578063305246541461013e5780633960cb951461016e578063470a24731461019e575b600080fd5b6100ee60048036038101906100e991906116d7565b6102ce565b6040516100fb9190611810565b60405180910390f35b61010c6104bf565b6040516101199190611810565b60405180910390f35b61013c6004803603810190610137919061185e565b61054d565b005b61015860048036038101906101539190611919565b6106ee565b6040516101659190611a90565b60405180910390f35b61018860048036038101906101839190611919565b610809565b6040516101959190611810565b60405180910390f35b6101b860048036038101906101b39190611aea565b6108d9565b005b6101d460048036038101906101cf9190611bcb565b610a10565b005b6101f060048036038101906101eb9190611c0b565b610ab7565b6040516101fd9190611810565b60405180910390f35b610220600480360381019061021b9190611bcb565b610d27565b60405161022d9190611da9565b60405180910390f35b610250600480360381019061024b9190611e01565b610fd7565b60405161025d9190611e3d565b60405180910390f35b610280600480360381019061027b9190611c0b565b611016565b005b61029c60048036038101906102979190611919565b61108f565b6040516102a99190611eb6565b60405180910390f35b6102cc60048036038101906102c79190611bcb565b61126d565b005b60606000808054905067ffffffffffffffff8111156102f0576102ef6115ac565b5b60405190808252806020026020018201604052801561031e5781602001602082028036833780820191505090505b5090506000805b6000805490508110156104b457846040516020016103439190611f14565b60405160208183030381529060405280519060200120600160008084815481106103705761036f611f2b565b5b9060005260206000200160009054906101000a900473ffffffffffffffffffffffffffffffffffffffff1673ffffffffffffffffffffffffffffffffffffffff1673ffffffffffffffffffffffffffffffffffffffff1681526020019081526020016000206003016000016040516020016103eb9190612052565b60405160208183030381529060405280519060200120036104a1576000818154811061041a57610419611f2b565b5b9060005260206000200160009054906101000a900473ffffffffffffffffffffffffffffffffffffffff1683838151811061045857610457611f2b565b5b602002602001019073ffffffffffffffffffffffffffffffffffffffff16908173ffffffffffffffffffffffffffffffffffffffff1681525050818061049d90612098565b9250505b80806104ac90612098565b915050610325565b508192505050919050565b6060600080548060200260200160405190810160405280929190818152602001828054801561054357602002820191906000526020600020905b8160009054906101000a900473ffffffffffffffffffffffffffffffffffffffff1673ffffffffffffffffffffffffffffffffffffffff16815260200190600101908083116104f9575b5050505050905090565b82600160008673ffffffffffffffffffffffffffffffffffffffff1673ffffffffffffffffffffffffffffffffffffffff168152602001908152602001600020600301600001908161059f9190612277565b5081600160008673ffffffffffffffffffffffffffffffffffffffff1673ffffffffffffffffffffffffffffffffffffffff16815260200190815260200160002060030160010190816105f29190612277565b5080600160008673ffffffffffffffffffffffffffffffffffffffff1673ffffffffffffffffffffffffffffffffffffffff16815260200190815260200160002060030160020190816106459190612277565b506000849080600181540180825580915050600190039060005260206000200160009091909190916101000a81548173ffffffffffffffffffffffffffffffffffffffff021916908373ffffffffffffffffffffffffffffffffffffffff1602179055507fb2d51962e7aef3f579170ec16d4a55b1e4ebdd5f588aebe13e745521f42d4a4c84848484336040516106e0959493929190612393565b60405180910390a150505050565b6060600160008373ffffffffffffffffffffffffffffffffffffffff1673ffffffffffffffffffffffffffffffffffffffff168152602001908152602001600020600101805480602002602001604051908101604052809291908181526020016000905b828210156107fe57838290600052602060002001805461077190611f89565b80601f016020809104026020016040519081016040528092919081815260200182805461079d90611f89565b80156107ea5780601f106107bf576101008083540402835291602001916107ea565b820191906000526020600020905b8154815290600101906020018083116107cd57829003601f168201915b505050505081526020019060010190610752565b505050509050919050565b6060600160008373ffffffffffffffffffffffffffffffffffffffff1673ffffffffffffffffffffffffffffffffffffffff1681526020019081526020016000206000018054806020026020016040519081016040528092919081815260200182805480156108cd57602002820191906000526020600020905b8160009054906101000a900473ffffffffffffffffffffffffffffffffffffffff1673ffffffffffffffffffffffffffffffffffffffff1681526020019060010190808311610883575b50505050509050919050565b600160008773ffffffffffffffffffffffffffffffffffffffff1673ffffffffffffffffffffffffffffffffffffffff16815260200190815260200160002060020160008673ffffffffffffffffffffffffffffffffffffffff1673ffffffffffffffffffffffffffffffffffffffff1681526020019081526020016000206040518060800160405280868152602001858152602001848152602001831515815250908060018154018082558091505060019003906000526020600020906004020160009091909190915060008201518160000190816109b99190612277565b5060208201518160010190816109cf9190612277565b5060408201518160020190816109e59190612277565b5060608201518160030160006101000a81548160ff0219169083151502179055505050505050505050565b600160008373ffffffffffffffffffffffffffffffffffffffff1673ffffffffffffffffffffffffffffffffffffffff168152602001908152602001600020600001819080600181540180825580915050600190039060005260206000200160009091909190916101000a81548173ffffffffffffffffffffffffffffffffffffffff021916908373ffffffffffffffffffffffffffffffffffffffff1602179055505050565b60606000600160008573ffffffffffffffffffffffffffffffffffffffff1673ffffffffffffffffffffffffffffffffffffffff168152602001908152602001600020600001805480602002602001604051908101604052809291908181526020018280548015610b7d57602002820191906000526020600020905b8160009054906101000a900473ffffffffffffffffffffffffffffffffffffffff1673ffffffffffffffffffffffffffffffffffffffff1681526020019060010190808311610b33575b505050505090506000815167ffffffffffffffff811115610ba157610ba06115ac565b5b604051908082528060200260200182016040528015610bcf5781602001602082028036833780820191505090505b5090506000805b8351811015610d1a5785604051602001610bf09190611f14565b6040516020818303038152906040528051906020012060016000868481518110610c1d57610c1c611f2b565b5b602002602001015173ffffffffffffffffffffffffffffffffffffffff1673ffffffffffffffffffffffffffffffffffffffff168152602001908152602001600020600301600001604051602001610c759190612052565b6040516020818303038152906040528051906020012003610d0757838181518110610ca357610ca2611f2b565b5b6020026020010151838381518110610cbe57610cbd611f2b565b5b602002602001019073ffffffffffffffffffffffffffffffffffffffff16908173ffffffffffffffffffffffffffffffffffffffff16815250508180610d0390612098565b9250505b8080610d1290612098565b915050610bd6565b5081935050505092915050565b6060600160008473ffffffffffffffffffffffffffffffffffffffff1673ffffffffffffffffffffffffffffffffffffffff16815260200190815260200160002060020160008373ffffffffffffffffffffffffffffffffffffffff1673ffffffffffffffffffffffffffffffffffffffff168152602001908152602001600020805480602002602001604051908101604052809291908181526020016000905b82821015610fcb5783829060005260206000209060040201604051806080016040529081600082018054610dfb90611f89565b80601f0160208091040260200160405190810160405280929190818152602001828054610e2790611f89565b8015610e745780601f10610e4957610100808354040283529160200191610e74565b820191906000526020600020905b815481529060010190602001808311610e5757829003601f168201915b50505050508152602001600182018054610e8d90611f89565b80601f0160208091040260200160405190810160405280929190818152602001828054610eb990611f89565b8015610f065780601f10610edb57610100808354040283529160200191610f06565b820191906000526020600020905b815481529060010190602001808311610ee957829003601f168201915b50505050508152602001600282018054610f1f90611f89565b80601f0160208091040260200160405190810160405280929190818152602001828054610f4b90611f89565b8015610f985780601f10610f6d57610100808354040283529160200191610f98565b820191906000526020600020905b815481529060010190602001808311610f7b57829003601f168201915b505050505081526020016003820160009054906101000a900460ff16151515158152505081526020019060010190610dc8565b50505050905092915050565b60008181548110610fe757600080fd5b906000526020600020016000915054906101000a900473ffffffffffffffffffffffffffffffffffffffff1681565b600160008373ffffffffffffffffffffffffffffffffffffffff1673ffffffffffffffffffffffffffffffffffffffff1681526020019081526020016000206001018190806001815401808255809150506001900390600052602060002001600090919091909150908161108a9190612277565b505050565b6001602052806000526040600020600091509050806003016040518060600160405290816000820180546110c290611f89565b80601f01602080910402602001604051908101604052809291908181526020018280546110ee90611f89565b801561113b5780601f106111105761010080835404028352916020019161113b565b820191906000526020600020905b81548152906001019060200180831161111e57829003601f168201915b5050505050815260200160018201805461115490611f89565b80601f016020809104026020016040519081016040528092919081815260200182805461118090611f89565b80156111cd5780601f106111a2576101008083540402835291602001916111cd565b820191906000526020600020905b8154815290600101906020018083116111b057829003601f168201915b505050505081526020016002820180546111e690611f89565b80601f016020809104026020016040519081016040528092919081815260200182805461121290611f89565b801561125f5780601f106112345761010080835404028352916020019161125f565b820191906000526020600020905b81548152906001019060200180831161124257829003601f168201915b505050505081525050905081565b60005b600160008473ffffffffffffffffffffffffffffffffffffffff1673ffffffffffffffffffffffffffffffffffffffff16815260200190815260200160002060000180549050811015611578578173ffffffffffffffffffffffffffffffffffffffff16600160008573ffffffffffffffffffffffffffffffffffffffff1673ffffffffffffffffffffffffffffffffffffffff168152602001908152602001600020600001828154811061132857611327611f2b565b5b9060005260206000200160009054906101000a900473ffffffffffffffffffffffffffffffffffffffff1673ffffffffffffffffffffffffffffffffffffffff160361156557600160008473ffffffffffffffffffffffffffffffffffffffff1673ffffffffffffffffffffffffffffffffffffffff16815260200190815260200160002060000160018060008673ffffffffffffffffffffffffffffffffffffffff1673ffffffffffffffffffffffffffffffffffffffff1681526020019081526020016000206000018054905061140191906123fb565b8154811061141257611411611f2b565b5b9060005260206000200160009054906101000a900473ffffffffffffffffffffffffffffffffffffffff16600160008573ffffffffffffffffffffffffffffffffffffffff1673ffffffffffffffffffffffffffffffffffffffff168152602001908152602001600020600001828154811061149157611490611f2b565b5b9060005260206000200160006101000a81548173ffffffffffffffffffffffffffffffffffffffff021916908373ffffffffffffffffffffffffffffffffffffffff160217905550600160008473ffffffffffffffffffffffffffffffffffffffff1673ffffffffffffffffffffffffffffffffffffffff16815260200190815260200160002060000180548061152b5761152a61242f565b5b6001900381819060005260206000200160006101000a81549073ffffffffffffffffffffffffffffffffffffffff02191690559055611578565b808061157090612098565b915050611270565b505050565b6000604051905090565b600080fd5b600080fd5b600080fd5b600080fd5b6000601f19601f8301169050919050565b7f4e487b7100000000000000000000000000000000000000000000000000000000600052604160045260246000fd5b6115e48261159b565b810181811067ffffffffffffffff82111715611603576116026115ac565b5b80604052505050565b600061161661157d565b905061162282826115db565b919050565b600067ffffffffffffffff821115611642576116416115ac565b5b61164b8261159b565b9050602081019050919050565b82818337600083830152505050565b600061167a61167584611627565b61160c565b90508281526020810184848401111561169657611695611596565b5b6116a1848285611658565b509392505050565b600082601f8301126116be576116bd611591565b5b81356116ce848260208601611667565b91505092915050565b6000602082840312156116ed576116ec611587565b5b600082013567ffffffffffffffff81111561170b5761170a61158c565b5b611717848285016116a9565b91505092915050565b600081519050919050565b600082825260208201905092915050565b6000819050602082019050919050565b600073ffffffffffffffffffffffffffffffffffffffff82169050919050565b60006117778261174c565b9050919050565b6117878161176c565b82525050565b6000611799838361177e565b60208301905092915050565b6000602082019050919050565b60006117bd82611720565b6117c7818561172b565b93506117d28361173c565b8060005b838110156118035781516117ea888261178d565b97506117f5836117a5565b9250506001810190506117d6565b5085935050505092915050565b6000602082019050818103600083015261182a81846117b2565b905092915050565b61183b8161176c565b811461184657600080fd5b50565b60008135905061185881611832565b92915050565b6000806000806080858703121561187857611877611587565b5b600061188687828801611849565b945050602085013567ffffffffffffffff8111156118a7576118a661158c565b5b6118b3878288016116a9565b935050604085013567ffffffffffffffff8111156118d4576118d361158c565b5b6118e0878288016116a9565b925050606085013567ffffffffffffffff8111156119015761190061158c565b5b61190d878288016116a9565b91505092959194509250565b60006020828403121561192f5761192e611587565b5b600061193d84828501611849565b91505092915050565b600081519050919050565b600082825260208201905092915050565b6000819050602082019050919050565b600081519050919050565b600082825260208201905092915050565b60005b838110156119ac578082015181840152602081019050611991565b838111156119bb576000848401525b50505050565b60006119cc82611972565b6119d6818561197d565b93506119e681856020860161198e565b6119ef8161159b565b840191505092915050565b6000611a0683836119c1565b905092915050565b6000602082019050919050565b6000611a2682611946565b611a308185611951565b935083602082028501611a4285611962565b8060005b85811015611a7e5784840389528151611a5f85826119fa565b9450611a6a83611a0e565b925060208a01995050600181019050611a46565b50829750879550505050505092915050565b60006020820190508181036000830152611aaa8184611a1b565b905092915050565b60008115159050919050565b611ac781611ab2565b8114611ad257600080fd5b50565b600081359050611ae481611abe565b92915050565b60008060008060008060c08789031215611b0757611b06611587565b5b6000611b1589828a01611849565b9650506020611b2689828a01611849565b955050604087013567ffffffffffffffff811115611b4757611b4661158c565b5b611b5389828a016116a9565b945050606087013567ffffffffffffffff811115611b7457611b7361158c565b5b611b8089828a016116a9565b935050608087013567ffffffffffffffff811115611ba157611ba061158c565b5b611bad89828a016116a9565b92505060a0611bbe89828a01611ad5565b9150509295509295509295565b60008060408385031215611be257611be1611587565b5b6000611bf085828601611849565b9250506020611c0185828601611849565b9150509250929050565b60008060408385031215611c2257611c21611587565b5b6000611c3085828601611849565b925050602083013567ffffffffffffffff811115611c5157611c5061158c565b5b611c5d858286016116a9565b9150509250929050565b600081519050919050565b600082825260208201905092915050565b6000819050602082019050919050565b611c9c81611ab2565b82525050565b60006080830160008301518482036000860152611cbf82826119c1565b91505060208301518482036020860152611cd982826119c1565b91505060408301518482036040860152611cf382826119c1565b9150506060830151611d086060860182611c93565b508091505092915050565b6000611d1f8383611ca2565b905092915050565b6000602082019050919050565b6000611d3f82611c67565b611d498185611c72565b935083602082028501611d5b85611c83565b8060005b85811015611d975784840389528151611d788582611d13565b9450611d8383611d27565b925060208a01995050600181019050611d5f565b50829750879550505050505092915050565b60006020820190508181036000830152611dc38184611d34565b905092915050565b6000819050919050565b611dde81611dcb565b8114611de957600080fd5b50565b600081359050611dfb81611dd5565b92915050565b600060208284031215611e1757611e16611587565b5b6000611e2584828501611dec565b91505092915050565b611e378161176c565b82525050565b6000602082019050611e526000830184611e2e565b92915050565b60006060830160008301518482036000860152611e7582826119c1565b91505060208301518482036020860152611e8f82826119c1565b91505060408301518482036040860152611ea982826119c1565b9150508091505092915050565b60006020820190508181036000830152611ed08184611e58565b905092915050565b600081905092915050565b6000611eee82611972565b611ef88185611ed8565b9350611f0881856020860161198e565b80840191505092915050565b6000611f208284611ee3565b915081905092915050565b7f4e487b7100000000000000000000000000000000000000000000000000000000600052603260045260246000fd5b7f4e487b7100000000000000000000000000000000000000000000000000000000600052602260045260246000fd5b60006002820490506001821680611fa157607f821691505b602082108103611fb457611fb3611f5a565b5b50919050565b60008190508160005260206000209050919050565b60008154611fdc81611f89565b611fe68186611ed8565b94506001821660008114612001576001811461201657612049565b60ff1983168652811515820286019350612049565b61201f85611fba565b60005b8381101561204157815481890152600182019150602081019050612022565b838801955050505b50505092915050565b600061205e8284611fcf565b915081905092915050565b7f4e487b7100000000000000000000000000000000000000000000000000000000600052601160045260246000fd5b60006120a382611dcb565b91507fffffffffffffffffffffffffffffffffffffffffffffffffffffffffffffffff82036120d5576120d4612069565b5b600182019050919050565b60006020601f8301049050919050565b600082821b905092915050565b60006008830261212d7fffffffffffffffffffffffffffffffffffffffffffffffffffffffffffffffff826120f0565b61213786836120f0565b95508019841693508086168417925050509392505050565b6000819050919050565b600061217461216f61216a84611dcb565b61214f565b611dcb565b9050919050565b6000819050919050565b61218e83612159565b6121a261219a8261217b565b8484546120fd565b825550505050565b600090565b6121b76121aa565b6121c2818484612185565b505050565b5b818110156121e6576121db6000826121af565b6001810190506121c8565b5050565b601f82111561222b576121fc81611fba565b612205846120e0565b81016020851015612214578190505b612228612220856120e0565b8301826121c7565b50505b505050565b600082821c905092915050565b600061224e60001984600802612230565b1980831691505092915050565b6000612267838361223d565b9150826002028217905092915050565b61228082611972565b67ffffffffffffffff811115612299576122986115ac565b5b6122a38254611f89565b6122ae8282856121ea565b600060209050601f8311600181146122e157600084156122cf578287015190505b6122d9858261225b565b865550612341565b601f1984166122ef86611fba565b60005b82811015612317578489015182556001820191506020850194506020810190506122f2565b868310156123345784890151612330601f89168261223d565b8355505b6001600288020188555050505b505050505050565b600082825260208201905092915050565b600061236582611972565b61236f8185612349565b935061237f81856020860161198e565b6123888161159b565b840191505092915050565b600060a0820190506123a86000830188611e2e565b81810360208301526123ba818761235a565b905081810360408301526123ce818661235a565b905081810360608301526123e2818561235a565b90506123f16080830184611e2e565b9695505050505050565b600061240682611dcb565b915061241183611dcb565b92508282101561242457612423612069565b5b828203905092915050565b7f4e487b7100000000000000000000000000000000000000000000000000000000600052603160045260246000fdfea26469706673582212207c9d9aa6ca21c3ecb0112a9e9327b7d77fd8d0e4b8efd919bc82eb9386efeb1564736f6c634300080f0033",
  "immutableReferences": {},
  "source": "pragma solidity ^0.8.15;\r\n// functionalities\r\n// 1. user can send message to another user\r\n// 2. user can find other users using search option\r\n// 3. user can add his/her stories\r\n// 4. user can see other users stories\r\n// 5. user can see other users profile\r\n\r\n// user mapping information\r\n// 1. array of friends\r\n// 2. array of stories\r\n// 3. mapping of messages having key as other user address and value having array of structure having message, date, time, seen_status\r\n// 4. profile information like name, profile picture, last seen, etc\r\n\r\n\r\ncontract whatsapp3\r\n{\r\n    address[] public users_addresses;\r\n    struct Message\r\n    {\r\n        string message;\r\n        string date;\r\n        string time;\r\n        bool seen_status;\r\n    }\r\n    \r\n    struct profile\r\n    {\r\n        string name;\r\n        string profile_picture;\r\n        string last_seen;\r\n    }\r\n    \r\n    struct user\r\n    {\r\n        address[] friends;\r\n        string[] stories;\r\n        mapping(address => Message[]) messages;\r\n        profile profile;\r\n    }\r\n    \r\n    mapping(address => user) public users;\r\n\r\n    event user_added(address user_address, string name, string profile_picture, string last_seen,address author);\r\n    function add_user(address user_address, string memory name, string memory profile_picture, string memory last_seen) public\r\n    {\r\n        users[user_address].profile.name = name;\r\n        users[user_address].profile.profile_picture = profile_picture;\r\n        users[user_address].profile.last_seen = last_seen;\r\n        users_addresses.push(user_address);\r\n        emit user_added(user_address, name, profile_picture, last_seen,msg.sender);\r\n    }\r\n    function add_friend(address user_address, address friend_address) public\r\n    {\r\n        users[user_address].friends.push(friend_address);\r\n    }\r\n    function remove_friend(address user_address, address friend_address) public\r\n    {\r\n        for(uint i=0; i<users[user_address].friends.length; i++)\r\n        {\r\n            if(users[user_address].friends[i] == friend_address)\r\n            {\r\n                users[user_address].friends[i] = users[user_address].friends[users[user_address].friends.length-1];\r\n                users[user_address].friends.pop();\r\n                break;\r\n            }\r\n        }\r\n    }\r\n    function add_story(address user_address, string memory story) public\r\n    {\r\n        users[user_address].stories.push(story);\r\n    }\r\n    function add_message(address user_address, address friend_address, string memory message_, string memory date, string memory time, bool seen_status) public\r\n    {\r\n        users[user_address].messages[friend_address].push(Message(message_, date, time, seen_status));\r\n    }\r\n    function getmessages(address user_address, address friend_address) public view returns(Message[] memory)\r\n    {\r\n        return users[user_address].messages[friend_address];\r\n    }\r\n    function getfriends(address user_address) public view returns(address[] memory)\r\n    {\r\n        return users[user_address].friends;\r\n    }\r\n    function getstories(address user_address) public view returns(string[] memory)\r\n    {\r\n        return users[user_address].stories;\r\n    }\r\n\r\n    function search_user(address user_address, string memory name) public view returns(address[] memory)\r\n    {\r\n        address[] memory friends = users[user_address].friends;\r\n        address[] memory result = new address[](friends.length);\r\n        uint count = 0;\r\n        for(uint i=0; i<friends.length; i++)\r\n        {\r\n            if(keccak256(abi.encodePacked(users[friends[i]].profile.name)) == keccak256(abi.encodePacked(name)))\r\n            {\r\n                result[count] = friends[i];\r\n                count++;\r\n            }\r\n        }\r\n        return result;\r\n    }\r\n\r\n    //write a function to search for new friends using name in users addresses array\r\n    function search_new_friends(string memory name) public view returns(address[] memory)\r\n    {\r\n        address[] memory result = new address[](users_addresses.length);\r\n        uint count = 0;\r\n        for(uint i=0; i<users_addresses.length; i++)\r\n        {\r\n            if(keccak256(abi.encodePacked(users[users_addresses[i]].profile.name)) == keccak256(abi.encodePacked(name)))\r\n            {\r\n                result[count] = users_addresses[i];\r\n                count++;\r\n            }\r\n        }\r\n        return result;\r\n    }\r\n    function getusers() public view returns(address[] memory)\r\n    {\r\n        return users_addresses;\r\n    }\r\n\r\n\r\n    \r\n\r\n   \r\n}",
  "sourcePath": "C:\\Users\\user\\Desktop\\projects\\whatsapp 3.0\\src\\contracts\\whatsapp3.sol",
  "compiler": {
    "name": "solc",
    "version": "0.8.15+commit.e14f2714.Emscripten.clang"
  },
  "schemaVersion": "3.4.11",
  "updatedAt": "2023-01-27T13:05:49.493Z",
  "networkType": "ethereum",
  "devdoc": {
    "kind": "dev",
    "methods": {},
    "version": 1
  },
  "userdoc": {
    "kind": "user",
    "methods": {},
    "version": 1
  }
}